:100000000C9489000C94BA000C94BA000C94BA00B9
:100010000C94BA000C94BA000C94BA000C94BA0078
:100020000C94BA000C94BA000C94BA000C94BA0068
:100030000C94BA000C94BA000C94BA000C94BA0058
:100040000C94BA000C94BA000C94BA000C94BA0048
:100050000C94BA000C94BA000C94BA000C944C099D
:100060000C94BA000C9499030C9489040C94BA0073
:100070000C94BA000C94BA000C94BA000C94BA0018
:100080000C94BA000C94BA000C94BA000C94BA0008
:100090000C94CD030C94C8040C94BA000C94BA00D0
:1000A0000C94BA000C94BA000C94BA000C94BA00E8
:1000B0000C94BA000C94BA000C94BA000C94BA00D8
:1000C0000C94BA000C94BA000C94BA000C9401047D
:1000D0000C9407050C94BA000C9435040C94460556
:1000E0000C94BA000C9438030C940C010C94060187
:1000F0000C9468040C94E9020C9416030C945202BC
:100100000C9443030C9406060C94FB0206010606AD
:100110000C0111241FBECFEFD1E2DEBFCDBF00E046
:100120000CBF12E0A0E0B2E0E8E8F4E100E00BBFB1
:1001300002C007900D92AE31B107D9F714E0AEE1DD
:10014000B2E001C01D92AB3DB107E1F710E0C8E895
:10015000D0E000E006C021970109802FFE010E9437
:100160001A0AC638D10780E00807A9F70E94DC0206
:100170000C94320A0C94000040E052EC61E070E014
:100180008CE892E00E94850540E052EC61E070E06E
:100190008AE692E00C948505CF93DF93CDB7DEB766
:1001A00027970FB6F894DEBF0FBECDBF80911E0219
:1001B000882319F16FE172E0CE0101960E94C5011A
:1001C00066E072E0CE0101960E942702BC018CE835
:1001D00092E00E94CA02CE0101960E9429016FE1BD
:1001E00072E08AE692E00E94CA026DE072E08FE15E
:1001F00092E00E94CF0110921E0227960FB6F8944B
:10020000DEBF0FBECDBFDF91CF9108956DE072E0EC
:100210008FE192E00C9497018FE192E00C94290118
:10022000CF93C1E08CE892E00E94E902892B79F03B
:100230008CE892E00E9416038A3019F4C0931E02E3
:10024000F1CF682F8FE192E00E941302EBCFCF91A4
:100250000895FC01808191810C94BD08CF93DF93B8
:10026000EC0188819981009711F00E94BD081982E4
:1002700018821D821C821B821A82DF91CF91089501
:100280000F931F93CF93DF93EC018B016F5F7F4F31
:10029000888199810E943C07009731F09983888377
:1002A0001B830A8381E001C080E0DF91CF911F9121
:1002B0000F910895CF93DF93EC0188819981892B69
:1002C00029F08A819B818617970760F4CE010E94EE
:1002D0004001882341F08C819D81892B19F4E881AC
:1002E000F981108281E0DF91CF910895EF92FF9222
:1002F0000F931F93CF93DF93EC017B018A01BA0127
:100300000E945A01811104C0CE010E942E0107C033
:100310001D830C83B701888199810E942B0ACE012D
:10032000DF91CF911F910F91FF90EF900895FC0105
:100330001182108213821282158214821682611534
:10034000710559F0FB0101900020E9F7AF01415020
:100350005109461B570B0C9476010895CF93DF93F8
:10036000EC01FB018617970761F0608171816115CF
:10037000710529F0448155810E94760102C00E94D6
:100380002E01CE01DF91CF910895FC0111821082E0
:10039000138212821582148216820C94AE01CF93BE
:1003A000DF93EC016115710561F0FB010190002004
:1003B000E9F7AF0141505109461B570B0E947601E6
:1003C00002C00E942E01CE01DF91CF910895EF92DD
:1003D000FF920F931F93CF93DF93EC017B010C816E
:1003E0001D816115710511F480E016C0411551059C
:1003F00091F0040F151FB8010E945A018823A1F340
:10040000288139818C819D81B701820F931F0E94C1
:100410002B0A1D830C8381E0DF91CF911F910F91F7
:10042000FF90EF900895CF93DF931F921F92CDB767
:10043000DEB769831A8241E050E0BE016F5F7F4FF3
:100440000E94E7010F900F90DF91CF910895CF9315
:10045000DF93EC016115710569F0FB01019000204B
:10046000E9F7AF0141505109461B570B0E94E701C4
:10047000811103C0CE010E942E01CE01DF91CF91E8
:100480000895FC01248135816217730748F4808147
:100490009181009729F0FC01E60FF71F80810895F4
:1004A00080E00895CF92DF92EF92FF920F931F9317
:1004B000CF93DF936C017A01EB01E60EF71E00E0AB
:1004C00010E0CE15DF0561F06991D601ED91FC9148
:1004D0000190F081E02DC6011995080F191FF1CF89
:1004E000C801DF91CF911F910F91FF90EF90DF90A6
:1004F000CF900895AF92BF92CF92DF92EF92FF928A
:100500000F931F93CF93DF937C016B01C0E0D0E08A
:1005100000E010E0D60114968D919C911597C817B4
:10052000D90788F4D701ED91FC91A080B180BE017C
:10053000C6010E944102682FC701F5011995080FF5
:10054000191F2196E7CFC801DF91CF911F910F911D
:10055000FF90EF90DF90CF90BF90AF900895DC01B7
:10056000ED91FC910190F081E02D19940F931F9370
:10057000CF93DF93EC016DE00E94AF028C016AE043
:10058000CE010E94AF02800F911FDF91CF911F918A
:100590000F9108950F931F93CF93DF93EC010E9467
:1005A0007A028C01CE010E94B602800F911FDF916A
:1005B000CF911F910F9108950E9496090E94BC004F
:1005C000C8E6D4E00E94CC002097E1F30E946804C2
:1005D000F9CFFC0124853585F901E05CFF4F80816E
:1005E0009181F901EE5BFF4F20813181821B930BDA
:1005F0008F7399270895FC0184859585FC01E05C43
:10060000FF4F40815181FC01EE5BFF4F2081318122
:100610004217530741F00190F081E02DE80FF91FD8
:10062000808190E008958FEF9FEF0895FC0184850D
:100630009585FC01E05CFF4F40815181FC01EE5B40
:10064000FF4F208131814217530779F0A081B1819A
:10065000A80FB91F8C91208131812F5F3F4F2F73DD
:1006600033273183208390E008958FEF9FEF089523
:10067000FC0181A1882329F0A489B5898C9186FF8A
:10068000FBCF11A20895CF93DF93FC012685378518
:10069000D901A05CBF4F8D919C91119701968F73EA
:1006A0009927E901CE5BDF4F48815981841795076F
:1006B000D9F30D90BC91A02DA20FB31F6C93A6850A
:1006C000B785A05CBF4F11969C938E93A689B7897E
:1006D0002C9181E090E0078C02C0880F991F0A944A
:1006E000E2F7282B2C9381E081A30488F589E02D83
:1006F00080818064808381E090E0DF91CF910895D4
:10070000FB01E05CFF4F208131812F5F3F4F2F7352
:100710003327DB01AE5BBF4F4D915C91241735074A
:1007200039F0A081B181A60FB71F8C93318320834C
:1007300008951F920F920FB60F9211240BB60F92CD
:100740002F933F934F935F936F937F938F939F93D9
:10075000AF93BF93EF93FF938091C00082FD07C0DA
:100760008091C6006AE874E00E94800302C0809114
:10077000C600FF91EF91BF91AF919F918F917F91B3
:100780006F915F914F913F912F910F900BBE0F9002
:100790000FBE0F901F90189508951F920F920FB6DD
:1007A0000F9211240BB60F922F933F934F935F93A9
:1007B0006F937F938F939F93AF93BF93EF93FF9329
:1007C0008091C80082FD07C08091CE0062E074E095
:1007D0000E94800302C08091CE00FF91EF91BF91F3
:1007E000AF919F918F917F916F915F914F913F91C9
:1007F0002F910F900BBE0F900FBE0F901F9018956A
:1008000008951F920F920FB60F9211240BB60F92FC
:100810002F933F934F935F936F937F938F939F9308
:10082000AF93BF93EF93FF938091D00082FD07C0F9
:100830008091D6006AE773E00E94800302C0809135
:10084000D600FF91EF91BF91AF919F918F917F91D2
:100850006F915F914F913F912F910F900BBE0F9031
:100860000FBE0F901F90189508951F920F920FB60C
:100870000F9211240BB60F922F933F934F935F93D8
:100880006F937F938F939F93AF93BF93EF93FF9358
:100890008091300182FD07C08091360162EF72E0E5
:1008A0000E94800302C080913601FF91EF91BF91B9
:1008B000AF919F918F917F916F915F914F913F91F8
:1008C0002F910F900BBE0F900FBE0F901F90189599
:1008D0008CE892E00E94E902892B11F00E9410013D
:1008E0008AE692E00E94E902892B11F00E94CC0373
:1008F00088E492E00E94E902892B11F00E94000432
:1009000086E292E00E94E902892B11F00C943404F3
:1009100008951F920F920FB60F9211240BB60F92EB
:100920002F933F938F939F93EF93FF932091860490
:1009300030918704809188049091890428173907A1
:1009400031F48091C1008F7D8093C10014C0E0918B
:100950008804F0918904EA5BFB4F20818091880430
:100960009091890401968F739927909389048093BD
:1009700088042093C600FF91EF919F918F913F9142
:100980002F910F900BBE0F900FBE0F901F901895D8
:100990001F920F920FB60F9211240BB60F922F9346
:1009A0003F938F939F93EF93FF932091FE0330919A
:1009B000FF0380910004909101042817390731F456
:1009C0008091C9008F7D8093C90014C0E09100041C
:1009D000F0910104E254FC4F208180910004909139
:1009E000010401968F73992790930104809300046A
:1009F0002093CE00FF91EF919F918F913F912F9186
:100A00000F900BBE0F900FBE0F901F9018951F9266
:100A10000F920FB60F9211240BB60F922F933F93A4
:100A20008F939F93EF93FF932091760330917703F9
:100A300080917803909179032817390731F48091D8
:100A4000D1008F7D8093D10014C0E0917803F091A4
:100A50007903EA5CFC4F20818091780390917903BF
:100A600001968F739927909379038093780320934D
:100A7000D600FF91EF919F918F913F912F910F9011
:100A80000BBE0F900FBE0F901F9018951F920F92E4
:100A90000FB60F9211240BB60F922F933F938F93A3
:100AA0009F93EF93FF932091EE023091EF0280919C
:100AB000F0029091F1022817390731F48091310149
:100AC0008F7D8093310114C0E091F002F091F1022A
:100AD000E255FD4F20818091F0029091F102019644
:100AE0008F7399279093F1028093F002209336013F
:100AF000FF91EF919F918F913F912F910F900BBE9E
:100B00000F900FBE0F901F901895CF92DF92EF922B
:100B1000FF92CF93DF93EC016A017B01411581EED7
:100B2000580761057105F9F0EC89FD8981E090E0D5
:100B300008A002C0880F991F0A94E2F7808360E042
:100B400079E08DE390E0A70196010E94F809215019
:100B50003109410951095695479537952795211532
:100B600080E1380798F0EC89FD89108260E874E82C
:100B70008EE190E0A70196010E94F8092150310909
:100B8000410951095695479537952795E889F9897F
:100B90003083EA89FB89208319A2EE89FF8940818D
:100BA00081E090E09C010C8C02C0220F331F0A945C
:100BB000E2F7422B4083EE89FF8940819C010D8C36
:100BC00002C0220F331F0A94E2F7422B4083EE89C2
:100BD000FF8940819C010E8C02C0220F331F0A94B2
:100BE000E2F7422B4083EE89FF8920810F8C02C0FF
:100BF000880F991F0A94E2F7809582238083DF9102
:100C0000CF91FF90EF90DF90CF900895CF93109207
:100C10008F0210928E0288EE93E0A0E0B0E0809305
:100C2000900290939102A0939202B093930222E1DA
:100C300032E030938D0220938C024AE854E05093C6
:100C400099024093980246E454E050939B024093EB
:100C50009A0245EC50E050939D0240939C0244EC74
:100C600050E050939F0240939E0240EC50E050931E
:100C7000A1024093A00241EC50E05093A3024093A4
:100C8000A20242EC50E05093A5024093A40246EC2D
:100C900050E05093A7024093A602C4E0C093A8027C
:100CA000F3E0F093A902E7E0E093AA0275E0709305
:100CB000AB0261E06093AC0210926D0210926C0284
:100CC00080936E0290936F02A0937002B0937102B2
:100CD00030936B0220936A0242E054E05093770213
:100CE000409376024EEB53E05093790240937802A2
:100CF0004DEC50E050937B0240937A024CEC50E074
:100D000050937D0240937C0248EC50E050937F0268
:100D100040937E0249EC50E0509381024093800260
:100D20004AEC50E050938302409382024EEC50E034
:100D30005093850240938402C0938602F093870209
:100D4000E09388027093890260938A0210924B02AA
:100D500010924A0280934C0290934D02A0934E024F
:100D6000B0934F0230934902209348024AE753E080
:100D7000509355024093540246E353E05093570278
:100D80004093560245ED50E050935902409358026B
:100D900044ED50E050935B0240935A0240ED50E026
:100DA00050935D0240935C0241ED50E050935F022E
:100DB00040935E0242ED50E0509361024093600226
:100DC00046ED50E05093630240936202C093640288
:100DD000F0936502E0936602709367026093680285
:100DE000109229021092280280932A0290932B02DB
:100DF000A0932C02B0932D02309327022093260259
:100E000082EF92E090933302809332028EEA92E076
:100E1000909335028093340285E391E090933702FA
:100E20008093360284E391E09093390280933802F4
:100E300080E391E090933B0280933A0281E391E05A
:100E400090933D0280933C0282E391E090933F02B5
:100E500080933E0286E391E09093410280934002AA
:100E6000C0934202F0934302E09344027093450220
:100E700060934602CF9108956F927F928F929F92D6
:100E8000AF92BF92CF92DF92EF92FF920F931F9398
:100E9000CF93DF93EC01CB01209781F4DF91CF91C9
:100EA0001F910F91FF90EF90DF90CF90BF90AF9088
:100EB0009F908F907F906F900C942508FE01E60F15
:100EC000F71F9E0122503109E217F30708F4ACC066
:100ED000D9010D911C91119706171707B8F005302D
:100EE000110508F49FC0A80144505109461757073F
:100EF00008F498C002501109061B170B01931193B7
:100F00006D937C93CF010E94BD088CC05B01A01A39
:100F1000B10A4E01800E911EA091D904B091DA045D
:100F2000612C712C60E070E0109709F449C0A8159D
:100F3000B905C9F5ED90FC901197670142E0C40E28
:100F4000D11CCA14DB0478F147018A189B0864019C
:100F500042E0C40ED11C1296BC9012971396AC912D
:100F6000B5E0CB16D10440F0B282A3839182808297
:100F7000D9018D939C9309C00E5F1F4F0E0D1F1D4D
:100F8000F90111830083EB2DFA2F6115710531F002
:100F9000DB011396FC93EE93129744C0F093DA04AE
:100FA000E093D9043FC06D917C9111976616770646
:100FB00008F43B01BD0112960D90BC91A02DB4CF59
:100FC0006091D7047091D80468157905E9F4681622
:100FD0007906D0F44091000250910102411551056B
:100FE00041F44DB75EB76091040270910502461B53
:100FF000570BE417F507C0F4F093D804E093D70437
:10100000F901918380830EC00E9425087C0100971E
:1010100059F0A801BE010E94220ACE010E94BD081B
:10102000C70104C0CE0102C080E090E0DF91CF9103
:101030001F910F91FF90EF90DF90CF90BF90AF90F6
:101040009F908F907F906F900895CF93DF93823021
:10105000910510F482E090E0E091D904F091DA0477
:1010600020E030E0A0E0B0E0309739F140815181DC
:1010700048175907B8F04817590771F482819381CE
:10108000109729F013969C938E9312972CC09093EF
:10109000DA048093D90427C02115310531F04217B5
:1010A000530718F0A901DB0101C0EF019A01BD014E
:1010B000DF010280F381E02DD7CF21153105F9F052
:1010C000281B390B2430310580F48A819B816115FE
:1010D000710521F0FB019383828304C09093DA04AD
:1010E0008093D904FE01329644C0FE01E20FF31F43
:1010F0008193919322503109398328833AC02091FA
:10110000D7043091D804232B41F42091020230916E
:1011100003023093D8042093D70420910002309129
:1011200001022115310541F42DB73EB7409104026B
:1011300050910502241B350BE091D704F091D8049F
:10114000E217F307A0F42E1B3F0B2817390778F09E
:10115000AC014E5F5F4F2417350748F04E0F5F1FFD
:101160005093D8044093D7048193919302C0E0E058
:10117000F0E0CF01DF91CF910895CF93DF930097F7
:1011800009F487C0FC01329713821282C091D904FE
:10119000D091DA04209781F420813181280F391F02
:1011A0008091D7049091D8048217930779F5F09332
:1011B000D804E093D7046DC0DE0120E030E0AE1724
:1011C000BF0750F412964D915C9113979D01411504
:1011D000510509F1DA01F3CFB383A2834081518134
:1011E000840F951F8A179B0771F48D919C9111971D
:1011F000840F951F02969183808312968D919C9106
:101200001397938382832115310529F4F093DA042F
:10121000E093D9043EC0D9011396FC93EE93129744
:101220004D915D91A40FB51FEA17FB0779F48081FA
:101230009181840F951F0296D90111969C938E93EC
:101240008281938113969C938E931297E0E0F0E055
:101250008A819B81009719F0FE01EC01F9CFCE0144
:10126000029628813981820F931F2091D7043091F3
:10127000D8042817390769F4309729F41092DA0452
:101280001092D90402C013821282D093D804C09362
:10129000D704DF91CF9108951F920F920FB60F924E
:1012A00011242F933F938F939F93AF93BF9380917C
:1012B000CF049091D004A091D104B091D204309188
:1012C000CE0423E0230F2D3720F40196A11DB11D7C
:1012D00005C026E8230F0296A11DB11D2093CE0460
:1012E0008093CF049093D004A093D104B093D20400
:1012F0008091D3049091D404A091D504B091D604E8
:101300000196A11DB11D8093D3049093D404A093A2
:10131000D504B093D604BF91AF919F918F913F9127
:101320002F910F900FBE0F901F901895789484B551
:10133000826084BD84B5816084BD85B5826085BDD1
:1013400085B5816085BDEEE6F0E0808181608083B7
:10135000E1E8F0E01082808182608083808181609A
:101360008083E0E8F0E0808181608083E1EBF0E061
:10137000808184608083E0EBF0E080818160808305
:10138000E1E9F0E0808182608083808181608083F8
:10139000E0E9F0E0808181608083E1EAF0E0808133
:1013A00082608083808181608083E0EAF0E08081D8
:1013B00081608083E1E2F1E08081826080838081CE
:1013C00081608083E0E2F1E0808181608083EAE7F0
:1013D000F0E080818460808380818260808380816E
:1013E000816080838081806880831092C10008952D
:1013F000A1E21A2EAA1BBB1BFD010DC0AA1FBB1F19
:10140000EE1FFF1FA217B307E407F50720F0A21B8A
:10141000B30BE40BF50B661F771F881F991F1A94F7
:1014200069F760957095809590959B01AC01BD0121
:10143000CF010895EE0FFF1F881F8BBF0790F69115
:10144000E02D1994FB01DC0102C001900D92415086
:101450005040D8F70895FB01DC0101900D92002067
:10146000E1F7089510E0C8E8D0E000E006C0802F62
:10147000FE010E941A0A2196011DC938D10780E099
:081480000807A9F7F894FFCF5B
:101488000000DB048000206563686F65640000006D
:0E149800000043035202E9021603FB02380370
:00000001FF
