:100000000C9415010C94F1020C9422030C945303EC
:100010000C9484030C94B5030C94E6030C9417041D
:100020000C9448040C9446010C9446010C9446012F
:100030000C9446010C9446010C9446010C94460124
:100040000C9446010C9446010C9446010C94460114
:100050000C9446010C9446010C9446010C94BF0983
:100060000C9446010C943B050C940F060C9446012D
:100070000C9446010C9446010C9446010C944601E4
:100080000C9446010C9446010C9446010C944601D4
:100090000C9468050C944E060C9446010C94460191
:1000A0000C9446010C9446010C9446010C944601B4
:1000B0000C9446010C9446010C9446010C944601A4
:1000C0000C9446010C9446010C9446010C94950541
:1000D0000C948D060C9446010C94C2050C94CC062D
:1000E0000C9446010000090A02080B0C0D070603D8
:1000F00004010000000000000000000000000000FB
:1001000000000000000000000000000000000000EF
:1001100011100F00000000000000000000000000AF
:100120000000000000000000000001021020200874
:100130000810204010204080020102010804020142
:1001400001020408102040808040201008040201B1
:10015000800402018040201008040201080402010A
:100160000102040810204080010204081020408091
:1001700005050505070508080808020202020A0A23
:100180000808040404040101010101010101030341
:10019000030303030303040707070C0C0C0C0C0CEC
:1001A0000C0C0202020206060606060606060B0BE9
:1001B0000B0B0B0B0B0B000020002300260029006B
:1001C0002C002F003200000100000301060109018C
:1001D00000002200250028002B002E0031003400F2
:1001E00002010000050108010B01000021002400AC
:1001F00027002A002D003000330001010000040117
:1002000007010A010C94A9080C94D9040C94EB047E
:100210000C9486040C9499040C948B070C94EE05B2
:100220000C94B5040C9448018B0711241FBECFEF2A
:10023000D1E2DEBFCDBF00E00CBF12E0A0E0B2E033
:10024000E6E2F5E100E00BBF02C007900D92A63197
:10025000B107D9F714E0A6E1B2E001C01D92AD3CB0
:10026000B107E1F712E0CAE2D2E000E006C022974F
:100270000109FE010BBF0E948D0AC832D10780E040
:100280000807A9F70E9479040C94910A0C940000C5
:1002900060911602709117026F5F7F4F7093170283
:1002A000609316024AE050E085E892E00E94A509BA
:1002B0008DE00E94510261E0892B09F060E08DE041
:1002C0000C941A0240E052EC61E070E085E892E0A4
:1002D0000E940B0761E08DE00E94E20141E050E0E6
:1002E00068E471E080E00C947A020895893009F4A2
:1002F00043C088F4843029F138F4823059F1E8F4AD
:10030000813009F05EC023C0873061F188F5863006
:1003100009F057C023C08D3009F440C020F48B3061
:10032000A9F1C0F52DC0803109F442C0813109F432
:1003300043C08F3009F045C037C0809180008F776F
:1003400003C0809180008F7D80938000089584B5E4
:100350008F7702C084B58F7D84BD08958091B000F1
:100360008F7703C08091B0008F7D8093B000089597
:10037000809190008F7707C0809190008F7D03C09F
:1003800080919000877F8093900008958091A000D5
:100390008F7707C08091A0008F7D03C08091A0005F
:1003A000877F8093A0000895809120018F7707C0F8
:1003B000809120018F7D03C080912001877F8093F1
:1003C00020010895CF93DF9390E0FC01E65DFE4F9E
:1003D0004491FC01E059FE4F8491882341F190E063
:1003E000880F991FFC01E651FE4F25913491D901E8
:1003F00080539E4FFC0185919491C82FD92F9FB7B0
:10040000F8948C91611106C0409584238C93888167
:10041000842308C0623041F4242F209582238C93DA
:100420008881842B888302C0842B8C939FBFDF91AB
:10043000CF9108950F931F93CF93DF931F92CDB762
:10044000DEB7282F30E0F901EC51FF4F8491F9011C
:10045000E65DFE4F1491F901E059FE4F049100232F
:10046000D1F0882321F069830E9476016981E02F11
:10047000F0E0EE0FFF1FE053FE4F85919491DC01F9
:100480009FB7F8948C91611103C01095812301C02E
:10049000812B8C939FBF0F90DF91CF911F910F9174
:1004A0000895CF93DF93282F30E0F901EC51FF4FEF
:1004B0008491F901E65DFE4FD491F901E059FE4FB8
:1004C000C491CC2389F081110E947601EC2FF0E0D9
:1004D000EE0FFF1FEA54FE4F85919491DC018C9141
:1004E0008D2321E030E011F420E030E0C901DF91FC
:1004F000CF910895883008F073C0E82FF0E0EE0F38
:10050000FF1FE85EFD4F71836083843011F130F48A
:10051000823059F090F48130B1F53DC0863009F455
:1005200046C020F1873079F54FC0809169008C7FFB
:10053000842B80936900E89A089580916900440FA4
:10054000551F440F551F837F842B80936900E99AC0
:1005500008958091690074E0440F551F7A95E1F782
:100560008F7C842B80936900EA9A089580916900BA
:1005700066E0440F551F6A95E1F78F73842B8093D3
:100580006900EB9A089580916A008C7F842B809398
:100590006A00EC9A089580916A00440F551F440F39
:1005A000551F837F842B80936A00ED9A0895809174
:1005B0006A0024E0440F551F2A95E1F78F7C842BB5
:1005C00080936A00EE9A089580916A0096E0440F45
:1005D000551F9A95E1F78F73842B80936A00EF9AE9
:1005E00008951F920F920FB60F9211240BB60F921F
:1005F0002F933F934F935F936F937F938F939F932B
:10060000AF93BF93EF93FF9380911C0290911D02D3
:10061000892B29F0E0911C02F0911D021995FF91A0
:10062000EF91BF91AF919F918F917F916F915F916A
:100630004F913F912F910F900BBE0F900FBE0F90D7
:100640001F9018951F920F920FB60F9211240BB6A0
:100650000F922F933F934F935F936F937F938F935B
:100660009F93AF93BF93EF93FF9380911E0290915E
:100670001F02892B29F0E0911E02F0911F021995AB
:10068000FF91EF91BF91AF919F918F917F916F916A
:100690005F914F913F912F910F900BBE0F900FBE26
:1006A0000F901F9018951F920F920FB60F92112462
:1006B0000BB60F922F933F934F935F936F937F935C
:1006C0008F939F93AF93BF93EF93FF9380912002FB
:1006D00090912102892B29F0E0912002F0912102D2
:1006E0001995FF91EF91BF91AF919F918F917F915C
:1006F0006F915F914F913F912F910F900BBE0F9093
:100700000FBE0F901F9018951F920F920FB60F9269
:1007100011240BB60F922F933F934F935F936F93D8
:100720007F938F939F93AF93BF93EF93FF938091AA
:10073000220290912302892B29F0E0912202F0916C
:1007400023021995FF91EF91BF91AF919F918F91E6
:100750007F916F915F914F913F912F910F900BBEC1
:100760000F900FBE0F901F9018951F920F920FB60B
:100770000F9211240BB60F922F933F934F935F93D9
:100780006F937F938F939F93AF93BF93EF93FF9359
:100790008091180290911902892B29F0E09118029A
:1007A000F09119021995FF91EF91BF91AF919F912F
:1007B0008F917F916F915F914F913F912F910F900A
:1007C0000BBE0F900FBE0F901F9018951F920F92A7
:1007D0000FB60F9211240BB60F922F933F934F93A6
:1007E0005F936F937F938F939F93AF93BF93EF9399
:1007F000FF9380911A0290911B02892B29F0E091BE
:100800001A02F0911B021995FF91EF91BF91AF91E0
:100810009F918F917F916F915F914F913F912F9118
:100820000F900BBE0F900FBE0F901F9018951F9248
:100830000F920FB60F9211240BB60F922F933F9386
:100840004F935F936F937F938F939F93AF93BF93D8
:10085000EF93FF938091240290912502892B29F038
:10086000E0912402F09125021995FF91EF91BF913B
:10087000AF919F918F917F916F915F914F913F9138
:100880002F910F900BBE0F900FBE0F901F901895D9
:100890001F920F920FB60F9211240BB60F922F9347
:1008A0003F934F935F936F937F938F939F93AF93F8
:1008B000BF93EF93FF938091260290912702892B9B
:1008C00029F0E0912602F09127021995FF91EF910E
:1008D000BF91AF919F918F917F916F915F914F9158
:1008E0003F912F910F900BBE0F900FBE0F901F9056
:1008F00018950E94090A0E946201CEEED5E00E947E
:1009000075012097E1F30E94EE05F9CFFC01848583
:100910009585FC01E05CFF4F20813181FC01EE5B9D
:10092000FF4F80819181281B390B2F733327C90119
:100930000895FC0184859585FC01E05CFF4F4081B2
:100940005181FC01EE5BFF4F20813181421753073B
:1009500041F00190F081E02DE80FF91F208130E097
:1009600002C02FEF3FEFC9010895FC0184859585F2
:10097000FC01E05CFF4F40815181FC01EE5BFF4FC9
:10098000208131814217530781F0A081B181A80FE6
:10099000B91F8C91208131812F5F3F4F2F733327F7
:1009A00031832083282F30E002C02FEF3FEFC901B1
:1009B0000895FC0186859785FC01E05CFF4FDC0112
:1009C000AE5BBF4F408151812D913C9111974217F1
:1009D0005307C1F70895CF93DF93FC018685978570
:1009E000DC01A05CBF4F2D913C9111972F5F3F4FD1
:1009F0002F733327EC01CE5BDF4F488159812417D9
:100A00003507D9F30D90BC91A02DA80FB91F6C9399
:100A1000A685B785A05CBF4F11963C932E93A689FF
:100A2000B7892C9181E090E0058C02C0880F991F56
:100A30000A94E2F7282B2C9381E090E0DF91CF918C
:100A40000895FB01E05CFF4F208131812F5F3F4F14
:100A50002F733327DB01AE5BBF4F4D915C912417A1
:100A6000350739F0A081B181A60FB71F8C93318370
:100A70002083089508951F920F920FB60F921124AC
:100A80000BB60F922F933F934F935F936F937F9388
:100A90008F939F93AF93BF93EF93FF938091C60083
:100AA00060E874E00E942105FF91EF91BF91AF9142
:100AB0009F918F917F916F915F914F913F912F9176
:100AC0000F900BBE0F900FBE0F901F9018950895BA
:100AD0001F920F920FB60F9211240BB60F922F9305
:100AE0003F934F935F936F937F938F939F93AF93B6
:100AF000BF93EF93FF938091CE0068EF73E00E9465
:100B00002105FF91EF91BF91AF919F918F917F91BF
:100B10006F915F914F913F912F910F900BBE0F906E
:100B20000FBE0F901F90189508951F920F920FB649
:100B30000F9211240BB60F922F933F934F935F9315
:100B40006F937F938F939F93AF93BF93EF93FF9395
:100B50008091D60060E773E00E942105FF91EF913C
:100B6000BF91AF919F918F917F916F915F914F91C5
:100B70003F912F910F900BBE0F900FBE0F901F90C3
:100B8000189508951F920F920FB60F9211240BB66D
:100B90000F922F933F934F935F936F937F938F9316
:100BA0009F93AF93BF93EF93FF938091360168EECD
:100BB00072E00E942105FF91EF91BF91AF919F914B
:100BC0008F917F916F915F914F913F912F910F90F6
:100BD0000BBE0F900FBE0F901F90189585E892E006
:100BE0000E948604892B11F00E943A0586E692E065
:100BF0000E948604892B11F00E94670587E492E029
:100C00000E948604892B11F00E94940588E292E0EC
:100C10000E948604892B11F00C94C10508951F923F
:100C20000F920FB60F9211240BB60F922F933F9392
:100C30008F939F93EF93FF9320917C0430917D04D9
:100C400080917E0490917F042817390731F48091B8
:100C5000C1008F7D8093C10014C0E0917E04F091AB
:100C60007F04E45CFB4F208180917E0490917F049F
:100C700001968F73992790937F0480937E0420932D
:100C8000C600FF91EF919F918F913F912F910F900F
:100C90000BBE0F900FBE0F901F9018951F920F92D2
:100CA0000FB60F9211240BB60F922F933F938F9391
:100CB0009F93EF93FF932091F4033091F50380917C
:100CC000F6039091F7032817390731F48091C90092
:100CD0008F7D8093C90014C0E091F603F091F70373
:100CE000EC54FC4F20818091F6039091F70301961C
:100CF0008F7399279093F7038093F6032093CE0088
:100D0000FF91EF919F918F913F912F910F900BBE8B
:100D10000F900FBE0F901F9018951F920F920FB655
:100D20000F9211240BB60F922F933F938F939F93A3
:100D3000EF93FF9320916C0330916D0380916E03CC
:100D400090916F032817390731F48091D1008F7D7E
:100D50008093D10014C0E0916E03F0916F03E45DC5
:100D6000FC4F208180916E0390916F0301968F73E9
:100D7000992790936F0380936E032093D600FF9181
:100D8000EF919F918F913F912F910F900BBE0F90FC
:100D90000FBE0F901F9018951F920F920FB60F92D3
:100DA00011240BB60F922F933F938F939F93EF9342
:100DB000FF932091E4023091E5028091E602909148
:100DC000E7022817390731F4809131018F7D809334
:100DD000310114C0E091E602F091E702EC55FD4FBD
:100DE00020818091E6029091E70201968F73992706
:100DF0009093E7028093E60220933601FF91EF91F2
:100E00009F918F913F912F910F900BBE0F900FBE2E
:100E10000F901F901895CF92DF92EF92FF92CF9391
:100E2000DF93EC016A017B01411581EE58076105F2
:100E30007105F9F0EC89FD8981E090E00E8C02C02B
:100E4000880F991F0A94E2F7808360E079E08DE3D0
:100E500090E0A70196010E946B0A215031094109D7
:100E600051095695479537952795211580E1380703
:100E700098F0EC89FD89108260E874E88EE190E0DA
:100E8000A70196010E946B0A2150310941095109BD
:100E90005695479537952795E889F9893083EA89EA
:100EA000FB892083EE89FF89408181E090E09C01ED
:100EB0000A8C02C0220F331F0A94E2F7422B4083B0
:100EC000EE89FF8940819C010B8C02C0220F331FE9
:100ED0000A94E2F7422B4083EE89FF8940819C010E
:100EE0000C8C02C0220F331F0A94E2F7422B40837E
:100EF000EE89FF8920810D8C02C0880F991F0A940A
:100F0000E2F7809582238083DF91CF91FF90EF906D
:100F1000DF90CF900895CF931092880210928702AD
:100F200088EE93E0A0E0B0E08093890290938A027B
:100F3000A0938B02B0938C022AE032E030938602B9
:100F40002093850240E854E050939202409391022E
:100F50004CE354E0509394024093930245EC50E0EC
:100F6000509396024093950244EC50E050939802BF
:100F70004093970240EC50E050939A0240939902BC
:100F800041EC50E050939C0240939B0246EC50E0B1
:100F900050939E0240939D02C4E0C0939F02F3E0F1
:100FA000F093A002E7E0E093A10275E07093A20243
:100FB00061E06093A302109269021092680280932C
:100FC0006A0290936B02A0936C02B0936D0230930F
:100FD00067022093660248EF53E0509373024093F8
:100FE000720244EB53E050937502409374024DEC4F
:100FF00050E050937702409376024CEC50E05093CF
:1010000079024093780248EC50E050937B02409381
:101010007A0249EC50E050937D0240937C024EEC02
:1010200050E050937F0240937E02C0938002F09381
:101030008102E09382027093830260938402109293
:101040004A021092490280934B0290934C02A09363
:101050004D02B0934E02309348022093470240E77E
:1010600053E050935402409353024CE253E05093A8
:1010700056024093550245ED50E05093580240937C
:10108000570244ED50E050935A024093590240ED0C
:1010900050E050935C0240935B0241ED50E050936E
:1010A0005E0240935D0246ED50E050936002409333
:1010B0005F02C0936102F0936202E0936302709357
:1010C00064026093650210922B0210922A028093B0
:1010D0002C0290932D02A0932E02B0932F023093F6
:1010E00029022093280288EE92E0909335028093A3
:1010F000340284EA92E0909337028093360285E3CB
:1011000091E0909339028093380284E391E09093C8
:101110003B0280933A0280E391E090933D028093FA
:101120003C0281E391E090933F0280933E0286E38C
:1011300091E09093410280934002C0934202F09369
:101140004302E09344027093450260934602CF91BC
:101150000895CF92DF92EF92FF920F931F93CF9358
:10116000DF936C01EB017A01E60EF71E00E010E060
:101170000BC06991D601ED91FC910190F081E02DB9
:10118000C6011995080F191FCE15DF0591F7C80183
:10119000DF91CF911F910F91FF90EF90DF90CF9053
:1011A0000895DB010D900020E9F7AD014150510990
:1011B000461B570BDC01ED91FC910280F381E02D81
:1011C0001994DC01ED91FC910190F081E02D1994CE
:1011D0000F931F93CF93DF93EC016DE00E94E10822
:1011E0008C016AE0CE010E94E1089C01200F311FB2
:1011F000C901DF91CF911F910F9108954F925F9296
:101200006F927F929F92AF92BF92CF92DF92EF92B6
:10121000FF920F931F93CF93DF93CDB7DEB7A197C4
:101220000FB6F894DEBF0FBECDBF5C016A017B0133
:10123000922E19A281E0821710F08AE0982E8E017A
:101240000F5D1F4F492C512C612C712CC701B60129
:10125000A30192010E946B0A8C2D929E8019112489
:10126000015011098A3014F4805D01C0895CF801D5
:10127000808369017A01C114D104E104F10431F7DA
:10128000B801C5010E94D108A1960FB6F894DEBF3F
:101290000FBECDBFDF91CF911F910F91FF90EF90C7
:1012A000DF90CF90BF90AF909F907F906F905F90B6
:1012B0004F900895CF92DF92EF92FF920F931F937A
:1012C000CF93DF93EC016A017B012115310579F49D
:1012D000E881F9810190F081E02D642FDF91CF91B9
:1012E0001F910F91FF90EF90DF90CF9019942A30CB
:1012F000310519F477FD0EC02AE0B701A601CE0131
:10130000DF91CF911F910F91FF90EF90DF90CF90E1
:101310000C94FE086DE20E94E1088C0144275527D9
:10132000BA014C195D096E097F092AE0CE010E94BD
:10133000FE08080F191FC801DF91CF911F910F916F
:10134000FF90EF90DF90CF9008950F931F93CF936E
:10135000DF93EC019A01AB01662757FD6095762F6C
:101360000E945A098C01CE010E94E8089801280FBA
:10137000391FC901DF91CF911F910F9108951F92DD
:101380000F920FB60F9211242F933F938F939F9339
:10139000AF93BF938091C4049091C504A091C604FB
:1013A000B091C7043091CC04232F2D5F2D3720F44A
:1013B0000196A11DB11D05C0232F2A570296A11D1C
:1013C000B11D2093CC048093C4049093C504A093D2
:1013D000C604B093C7048091C8049091C904A09139
:1013E000CA04B091CB040196A11DB11D8093C8041D
:1013F0009093C904A093CA04B093CB04BF91AF915A
:101400009F918F913F912F910F900FBE0F901F9042
:101410001895789484B5826084BD84B5816084BD5C
:1014200085B5826085BD85B5816085BDEEE6F0E05D
:10143000808181608083E1E8F0E0108280818260B9
:101440008083808181608083E0E8F0E0808181603A
:101450008083E1EBF0E0808184608083E0EBF0E06A
:10146000808181608083E1E9F0E080818260808317
:10147000808181608083E0E9F0E080818160808309
:10148000E1EAF0E0808182608083808181608083F6
:10149000E0EAF0E0808181608083E1E2F1E0808138
:1014A00082608083808181608083E0E2F1E08081DE
:1014B00081608083EAE7F0E08081846080838081BE
:1014C0008260808380818160808380818068808366
:1014D0001092C1000895A1E21A2EAA1BBB1BFD01A8
:1014E0000DC0AA1FBB1FEE1FFF1FA217B307E40703
:1014F000F50720F0A21BB30BE40BF50B661F771F5B
:10150000881F991F1A9469F760957095809590953A
:101510009B01AC01BD01CF0108950790F691E02D2C
:061520001994F894FFCFBE
:101526000000CD04200000000000EB04A90886049A
:06153600B5049904D9047C
:00000001FF
